:100000000C9446000C9465000C9465000C946500FB
:100010000C9465000C9465000C9465000C946500CC
:100020000C9465000C9465000C9465000C946500BC
:100030000C9465000C9408010C9465000C94650008
:100040000C9465000C9465000C9465000C9465009C
:100050000C9465000C9465000C9465000C9465008C
:100060000C9465000C9465000C9465000C9465007C
:100070000C9465000C9465000C9465000C9465006C
:100080000C9465000C9465000C94650011241FBE4F
:10009000CFEFD0E4DEBFCDBF11E0A0E0B1E0E6EBF2
:1000A000F9E000E00BBF02C007900D92AA31B10742
:1000B000D9F721E0AAE1B1E001C01D92AC32B2074C
:1000C000E1F70E94CD030C94D9040C940000CF9367
:1000D000DF9300D01F92CDB7DEB789837B836A831D
:1000E00089818A3031F48A819B81BC018DE00E9434
:1000F000670080EC90E0FC018081882F90E08072A6
:100100009927892BB1F386EC90E02981FC012083AB
:1001100080E090E00F900F900F90DF91CF910895C5
:10012000CF93DF93CDB7DEB780E290E0FC01808112
:100130008095DF91CF910895CF93DF93CDB7DEB750
:100140000E9490008470DF91CF910895CF93DF9348
:10015000CDB7DEB70E9490008270DF91CF910895F5
:10016000CF93DF93CDB7DEB70E9490008170DF910F
:10017000CF910895CF93DF93CDB7DEB781E0809321
:100180001A010000DF91CF910895CF93DF93CDB78F
:10019000DEB781E890E0FC0110820000DF91CF9192
:1001A0000895CF93DF93CDB7DEB781E890E02BE0E1
:1001B000FC01208388E890E02DE730E0FC013183EA
:1001C00020838FE690E022E0FC01208384E890E029
:1001D000FC011182108280910E0190910F01A0917B
:1001E0001001B091110180931B0190931C01A09309
:1001F0001D01B0931E018FE590E02FE530E0F9017D
:1002000020812068FC0120830000DF91CF910895B8
:100210001F920F9200905F000F92112400905B00DC
:100220000F922F933F934F935F936F937F938F938F
:100230009F93AF93BF93EF93FF93CF93DF93CDB78C
:10024000DEB780911B0190911C01A0911D01B0911E
:100250001E010197A109B10980931B0190931C0114
:10026000A0931D01B0931E0180911B0190911C0170
:10027000A0911D01B0911E01892B8A2B8B2B91F42B
:100280000E94BA0080910E0190910F01A09110017F
:10029000B091110180931B0190931C01A0931D014B
:1002A000B0931E010000DF91CF91FF91EF91BF91BC
:1002B000AF919F918F917F916F915F914F913F91FE
:1002C0002F910F9000925B000F9000925F000F90B3
:1002D0001F901895CF93DF9300D000D0CDB7DEB735
:1002E00069837A838B839C8389819A81AB81BC816A
:1002F00080930E0190930F01A0931001B093110110
:1003000080910E0190910F01A0911001B091110107
:1003100080931B0190931C01A0931D01B0931E01BB
:1003200000000F900F900F900F90DF91CF910895E4
:10033000CF93DF93CDB7DEB780912801909129014B
:100340008130910581F08130910530F08230910546
:1003500089F00397B1F01CC081E090E090932901EF
:10036000809328011AC082E090E090932901809345
:10037000280113C083E090E0909329018093280125
:100380000CC081E090E0909329018093280105C082
:10039000109229011092280100008091280190916B
:1003A00029018130910549F081309105A8F0823012
:1003B000910539F0039749F00CC081E080931F014B
:1003C0000CC082E080931F0108C084E080931F016D
:1003D00004C010921F0101C000000000DF91CF9106
:1003E0000895CF93DF93CDB7DEB78091240190912C
:1003F00025018130910569F08130910518F002974F
:1004000079F015C081E090E090932501809324015C
:1004100013C082E090E090932501809324010CC0EA
:1004200081E090E0909325018093240105C0109213
:100430002501109224010000809124019091250152
:100440008130910531F08130910568F0029729F0F3
:1004500007C088E08093200107C01092200104C0EB
:100460001092200101C000000000DF91CF9108959B
:10047000CF93DF93CDB7DEB780912601909127010E
:100480008230910509F447C08330910528F4009724
:1004900079F00197A1F0A5C08430910509F46EC0F0
:1004A0008430910508F43EC0059709F46EC099C0E8
:1004B00081E090E0909327018093260197C00E94ED
:1004C000B000882359F00E94A600882339F081E00B
:1004D00090E0909327018093260188C00E94B0008D
:1004E000882339F082E090E09093270180932601E1
:1004F0007DC00E94A600882339F084E090E09093AC
:1005000027018093260172C081E090E0909327013B
:10051000809326016BC083E090E090932701809345
:10052000260164C00E94B000882359F00E94A600F2
:10053000882339F081E090E0909327018093260191
:1005400055C00E94B000882339F083E090E090937A
:100550002701809326014AC00E94A600882339F013
:1005600084E090E090932701809326013FC081E0D2
:1005700090E0909327018093260138C085E090E0B9
:10058000909327018093260131C00E94B0008823F8
:1005900059F00E94A600882339F081E090E0909302
:1005A00027018093260122C00E94B000882339F0E1
:1005B00082E090E0909327018093260117C00E946B
:1005C000A600882339F085E090E09093270180937E
:1005D00026010CC081E090E09093270180932601D2
:1005E00005C010922701109226010000809126017B
:1005F000909127018230910589F08330910528F48C
:10060000009739F1019739F12FC084309105B9F085
:100610008430910510F1059711F126C080911701E2
:10062000282F30E085E0882F90E0019728173907C0
:10063000C1F0809117018F5F8093170112C08091E4
:100640001701882381F08091170181508093170151
:100650000AC0000009C0000007C0000005C000007B
:1006600003C0000001C000000000DF91CF91089599
:10067000CF93DF93CDB7DEB780912A0190912B0104
:1006800081309105C1F08130910518F00297D1F0C9
:100690002BC00E949C00882339F081E090E0909369
:1006A0002B0180932A0125C082E090E090932B01DA
:1006B00080932A011EC082E090E090932B018093EA
:1006C0002A0117C00E949C00882339F081E090E045
:1006D00090932B0180932A010CC082E090E09093CC
:1006E0002B0180932A0105C010922B0110922A0140
:1006F000000080912A0190912B018130910549F0F1
:100700008130910518F0029741F00AC01092210142
:100710000AC080E18093210106C01092210103C02C
:100720001092210100000000DF91CF910895CF9336
:10073000DF93CDB7DEB7809122019091230100971E
:1007400019F0019741F00EC081E090E090932301F1
:100750008093220107C081E090E090932301809371
:10076000220100008091220190912301009781F0E5
:10077000019709F00EC085E290E0309120012091B0
:100780001F01322B20912101232BFC01208301C06A
:1007900000000000DF91CF910895CF93DF93CDB794
:1007A000DEB765970FB6F894DEBF0FBECDBF84E20B
:1007B00090E02FEFFC01208385E290E0FC011082A5
:1007C00081E290E0FC01108282E290E02FEFFC01D8
:1007D00020838CE291E0A0E0B0E089839A83AB8330
:1007E000BC8388EE93E0A0E0B0E08D839E83AF836E
:1007F000B88781E090E0A0E0B0E089879A87AB8776
:10080000BC8780911701882F90E08E5E9E4FFC017F
:100810008081882F90E0A0E0B0E08D879E87AF8731
:10082000B88B81E090E0A0E0B0E08A8B9B8BAC8B32
:10083000BD8B198A10922901109228018091240100
:100840009091250190932501809324011092270116
:100850001092260110922B0110922A01109223016E
:10086000109222018A899B89AC89BD89BC01CD0186
:100870000E946A010E94D10089819A81AB81BC816A
:100880008C329140A105B10540F00E949801198277
:100890001A821B821C8281E0898B8D819E81AF81AF
:1008A000B885883E9340A105B10540F00E94F10152
:1008B0001D821E821F82188681E0898B89859A8518
:1008C000AB85BC85892B8A2B8B2B41F00E9438028B
:1008D00019861A861B861C8681E0898B80911701F8
:1008E000882F90E08E5E9E4FFC018081282F30E0A3
:1008F00040E050E08D859E85AF85B88982179307CB
:10090000A407B50740F00E9438031D861E861F8687
:10091000188A81E0898B8989882311F00E949703C6
:10092000000080911A018823E1F310921A01198ABC
:1009300029813A814B815C818A899B89AC89BD89F7
:10094000820F931FA41FB51F89839A83AB83BC8337
:100950002D813E814F8158858A899B89AC89BD89CB
:10096000820F931FA41FB51F8D839E83AF83B8870B
:1009700029853A854B855C858A899B89AC89BD89A7
:10098000820F931FA41FB51F89879A87AB87BC87E7
:100990002D853E854F8558898A899B89AC89BD897B
:1009A000820F931FA41FB51F8D879E87AF87B88BBB
:0609B00063CFF894FFCFB5
:1009B60000000002000000006700000000000100C7
:0A09C6000000140A060402020500F6
:00000001FF
