:100000000C9446000C9465000C9465000C946500FB
:100010000C9465000C9465000C9465000C946500CC
:100020000C9465000C9465000C9465000C946500BC
:100030000C9465000C94F4000C9465000C9465001D
:100040000C9465000C9465000C9465000C9465009C
:100050000C9465000C9465000C9465000C9465008C
:100060000C9465000C9465000C9465000C9465007C
:100070000C9465000C9465000C9465000C9465006C
:100080000C9465000C9465000C94650011241FBE4F
:10009000CFEFD0E4DEBFCDBF11E0A0E0B1E0ECE0F7
:1000A000F7E000E00BBF02C007900D92A231B1074C
:1000B000D9F721E0A2E1B1E001C01D92A232B2075E
:1000C000E1F70E94B9020C9484030C940000CF93D2
:1000D000DF9300D01F92CDB7DEB789837B836A831D
:1000E00089818A3031F48A819B81BC018DE00E9434
:1000F000670080EC90E0FC018081882F90E08072A6
:100100009927892BB1F386EC90E02981FC012083AB
:1001100080E090E00F900F900F90DF91CF910895C5
:10012000CF93DF93CDB7DEB780E290E0FC01808112
:100130008095DF91CF910895CF93DF93CDB7DEB750
:100140000E9490008470DF91CF910895CF93DF9348
:10015000CDB7DEB781E0809312010000DF91CF912F
:100160000895CF93DF93CDB7DEB781E890E0FC012F
:1001700010820000DF91CF910895CF93DF93CDB728
:10018000DEB781E890E02BE0FC01208388E890E076
:100190002DE730E0FC01318320838FE690E022E000
:1001A000FC01208384E890E0FC01118210828091A0
:1001B0000E0190910F01A0911001B0911101809357
:1001C000130190931401A0931501B09316018FE5CC
:1001D00090E02FE530E0F90120812068FC012083C8
:1001E0000000DF91CF9108951F920F9200905F0061
:1001F0000F92112400905B000F922F933F934F9327
:100200005F936F937F938F939F93AF93BF93EF937E
:10021000FF93CF93DF93CDB7DEB780911301909119
:100220001401A0911501B09116010197A109B1091E
:100230008093130190931401A0931501B0931601BC
:100240008091130190911401A0911501B0911601B4
:10025000892B8A2B8B2B91F40E94A60080910E0192
:1002600090910F01A0911001B091110180931301A1
:1002700090931401A0931501B09316010000DF9133
:10028000CF91FF91EF91BF91AF919F918F917F910E
:100290006F915F914F913F912F910F9000925B0072
:1002A0000F9000925F000F901F901895CF93DF93EF
:1002B00000D000D0CDB7DEB769837A838B839C836F
:1002C00089819A81AB81BC8180930E0190930F014B
:1002D000A0931001B093110180910E0190910F0134
:1002E000A0911001B091110180931301909314011A
:1002F000A0931501B093160100000F900F900F907E
:100300000F90DF91CF910895CF93DF93CDB7DEB7F4
:1003100080911E0190911F018130910581F0813003
:10032000910530F08230910589F00397B1F01CC03F
:1003300081E090E090931F0180931E011AC082E03B
:1003400090E090931F0180931E0113C083E090E022
:1003500090931F0180931E010CC081E090E0909368
:100360001F0180931E0105C010921F0110921E01F3
:10037000000080911E0190911F018130910549F08C
:1003800081309105A8F08230910539F0039749F04A
:100390000CC081E0809317010CC082E080931701AC
:1003A00008C084E08093170104C01092170101C0B7
:1003B00000000000DF91CF910895CF93DF93CDB778
:1003C000DEB780911C0190911D018130910569F08B
:1003D0008130910518F0029779F015C081E090E026
:1003E00090931D0180931C0113C082E090E09093D4
:1003F0001D0180931C010CC081E090E090931D01D1
:1004000080931C0105C010921D0110921C01000078
:1004100080911C0190911D018130910531F0813056
:10042000910568F0029729F007C088E080931801D1
:1004300007C01092180104C01092180101C00000FA
:100440000000DF91CF910895CF93DF93CDB7DEB752
:10045000809120019091210181309105C1F081307E
:10046000910518F00297D1F02BC00E949C008823C0
:1004700039F081E090E0909321018093200125C024
:1004800082E090E090932101809320011EC082E0E1
:1004900090E0909321018093200117C00E949C005E
:1004A000882339F081E090E090932101809320012E
:1004B0000CC082E090E0909321018093200105C060
:1004C0001092210110922001000080912001909152
:1004D00021018130910549F08130910518F0029792
:1004E00041F00AC0109219010AC080E180931901FD
:1004F00006C01092190103C01092190100000000FB
:10050000DF91CF910895CF93DF93CDB7DEB7809180
:100510001A0190911B01009719F0019741F00EC04C
:1005200081E090E090931B0180931A0107C081E065
:1005300090E090931B0180931A01000080911A01B2
:1005400090911B01009781F0019709F00EC085E2A0
:1005500090E03091180120911701322B2091190160
:10056000232BFC01208301C000000000DF91CF910C
:100570000895CF93DF93CDB7DEB761970FB6F894A8
:10058000DEBF0FBECDBF84E290E02FEFFC012083E1
:1005900085E290E0FC01108281E290E0FC01108293
:1005A00082E290E02FEFFC0120838CE291E0A0E05A
:1005B000B0E089839A83AB83BC8388EE93E0A0E0AC
:1005C000B0E08D839E83AF83B88782E090E0A0E0A7
:1005D000B0E089879A87AB87BC8781E090E0A0E094
:1005E000B0E08E879F87A88BB98B1D8610921F0164
:1005F00010921E0180911C0190911D0190931D018C
:1006000080931C01109221011092200110921B0175
:1006100010921A018E859F85A889B989BC01CD01E8
:100620000E9456010E94BD0089819A81AB81BC81E4
:100630008C329140A105B10540F00E9484011982DD
:100640001A821B821C8281E08D878D819E81AF8101
:10065000B885883E9340A105B10540F00E94DD01B8
:100660001D821E821F82188681E08D8789859A856A
:10067000AB85BC850297A105B10540F00E9424021C
:1006800019861A861B861C8681E08D878D858823B6
:1006900011F00E9483020000809112018823E1F38F
:1006A000109212011D8629813A814B815C818E85D1
:1006B0009F85A889B989820F931FA41FB51F8983BD
:1006C0009A83AB83BC832D813E814F8158858E8573
:1006D0009F85A889B989820F931FA41FB51F8D8399
:1006E0009E83AF83B88729853A854B855C858E8547
:1006F0009F85A889B989820F931FA41FB51F898779
:0C0700009A87AB87BC8790CFF894FFCF9E
:10070C000000000200000000670000000000010073
:02071C000000DB
:00000001FF
